:03000000021C409F
:0C1C4000787FE4F6D8FD75814B021C870C
:0421B60048493A005A
:0D217C00E4FF20CC030F800520CD027F0280
:012189002233
:03001B000221BA05
:0321BA00B2B0328E
:10122E00E4F521F522F523752408F525F526F52795
:10123E00F528F529F52A752B80752C1EF52DF52E22
:10124E00F5B2F5B1F5CAF5C9121AA2E4F589758B96
:10125E00AE758DFBC28FD28EC2ABD2AF7532087512
:10126E0033FF7534097535207B80FDFF121ED212B7
:10127E00217CEF60FA7F647E001221141220B7E504
:10128E002D64017069121E1AE522B40127D2AB7FBC
:10129E000A7E00122114C2AB7F0A7E00122114D2E4
:1012AE00AB7F0A7E00122114C2AB7F0A7E00122190
:1012BE0014E4F52212217C8F21E521B402C1D3E57D
:1012CE00269528E52595274006852527852628E499
:1012DE00F525F526F52DF529752E01AF2E12161AC8
:1012EE00AD2EAF23121775E4FF12207380910526E1
:1012FE00E52670020525E529700512217C8F211245
:10130E001E7E1218B4D3E529648094805006E52120
:10131E0094004009AF2E12161A8F298003121DB6A3
:10132E00AD2EAF231217758E2A8F2BE52370057500
:10133E002408800DE523B40105752410800375245F
:10134E00187E00E52B2524EE352AC3648094805048
:10135E0013121F207C007D041215D88D237D01AF42
:10136E0023121775C3E529648094905041C3E52B71
:10137E009410E52A64809480400DD3E52B9420E5EB
:10138E002A6480948040217E00E52B2524FFEE35D3
:10139E002AFEC3EF9410EE648094804011D3EF9434
:1013AE0020EE648094805006752D017522017BFF1E
:1013BE007A2179B6753A0CE4FD7F23121FB5753389
:1013CE000575340CAB28AA27E4FD7F3A121CCC75A8
:1013DE00330575340CAB26AA25E4FD7F62121CCCB6
:1013EE00AE25AF267C007D64121583ED4C7004D2C1
:1013FE00AB8002C2ABE4F52EAE25AF26FC7D1412F7
:10140E0015838F2CE52CD394314003752C31C37486
:0E141E0032952CFFE49400FE12211402128D70
:10001E0047414D45004F564552000000000000007C
:10002E000000002F000000000700070000147F14DE
:10003E007F1400242A7F2A120062640813230036DC
:10004E004955225000000503000000001C2241000B
:10005E00000041221C000014083E08140008083E4F
:10006E000808000000A0600000080808080800004A
:10007E0060600000002010080402003E5149453E19
:10008E000000427F40000042615149460021414537
:10009E004B31001814127F10002745454539003C9E
:1000AE004A4949300001710905030036494949366C
:1000BE0000064949291E000036360000000056365B
:1000CE00000000081422410000141414141400003F
:1000DE004122140800020151090600324959513ECD
:1000EE00007C1211127C007F49494936003E414185
:1000FE004122007F4141221C007F49494941007F36
:10010E0009090901003E4149497A007F0808087F24
:10011E000000417F4100002040413F01007F081454
:10012E002241007F40404040007F020C027F007F52
:10013E000408107F003E4141413E007F0909090637
:10014E00003E4151215E007F09192946004649496A
:10015E0049310001017F0101003F4040403F001F37
:10016E002040201F003F4038403F006314081463B6
:10017E0000070870080700615149454300007F41A0
:10018E00410000552A552A55000041417F000004C8
:10019E000201020400404040404000000102040001
:1001AE00002054545478007F484444380038444466
:1001BE00442000384444487F0038545454180008F2
:1001CE007E0901020018A4A4A47C007F0804047810
:1001DE000000447D4000004080847D00007F102898
:1001EE0044000000417F4000007C04180478007C2D
:1001FE000804047800384444443800FC24242418AD
:10020E000018242418FC007C0804040800485454E8
:10021E00542000043F444020003C4040207C001C01
:10022E002040201C003C4030403C00442810284414
:10023E00001CA0A0A07C004464544C44141414145C
:10024E001414000000000000000000000000000078
:10025E000000000000F80000000000000033300035
:10026E00000000100C06100C06000000000000003C
:10027E00000040C07840C0784000043F04043F04B2
:10028E000400007088FC08300000001820FF211EBA
:10029E000000F008F000E018000000211C031E21F1
:1002AE001E0000F00888700000001E21232419276C
:1002BE00211010160E0000000000000000000000CB
:1002CE000000000000E018040200000000071820E3
:1002DE00400000020418E000000000402018070053
:1002EE000000404080F0804040000202010F0102F9
:1002FE000200000000F0000000000101011F0101DA
:10030E000100000000000000000080B0700000003E
:10031E0000000000000000000000000101010101CA
:10032E00010100000000000000000030300000005D
:10033E000000000000008060180400601806010034
:10034E00000000E010080810E000000F1020201040
:10035E000F00001010F8000000000020203F2020A9
:10036E000000007008080888700000302824222140
:10037E0030000030088888483000001820202011F6
:10038E000E000000C02010F8000000070424243FD7
:10039E00240000F808888808080000192120201180
:1003AE000E0000E0108888180000000F11202011A8
:1003BE000E0000380808C83808000000003F000092
:1003CE0000000070880808887000001C222121227D
:1003DE001C0000E010080810E0000000312222117D
:1003EE000F00000000C0C000000000000030300010
:1003FE00000000000080000000000000806000008F
:10040E0000000000804020100800000102040810C7
:10041E0020004040404040404000040404040404D6
:10042E000400000810204080000000201008040284
:10043E000100007048080808F00000000030360186
:10044E000000C030C828E810E00007182724231445
:10045E000B000000C038E0000000203C2302022701
:10046E00382008F8888888700000203F202020114E
:10047E000E00C03008080808380007182020201089
:10048E00080008F808080810E000203F202020107F
:10049E000F0008F88888E8081000203F202023204D
:1004AE00180008F88888E8081000203F2000030094
:1004BE000000C03008080838000007182020221E4F
:1004CE00020008F808000008F808203F2101012169
:1004DE003F20000808F8080800000020203F2020D8
:1004EE00000000000808F8080800C08080807F0027
:1004FE00000008F888C028180800203F2001263880
:10050E00200008F8080000000000203F20202020D6
:10051E00300008F8F800F8F80800203F003F003FD0
:10052E00200008F830C00008F808203F2000071807
:10053E003F00E01008080810E0000F1020202010E7
:10054E000F0008F808080808F000203F21010101FB
:10055E000000E01008080810E0000F18242438509E
:10056E004F0008F8888888887000203F2000030C10
:10057E003020007088080808380000382021212219
:10058E001C00180808F8080818000000203F20007A
:10059E00000008F808000008F808001F202020209E
:1005AE001F000878880000C83808000007380E01C0
:1005BE000000F80800F80008F800033C0700073CAC
:1005CE000300081868808068180820302C03032C5C
:1005DE0030200838C800C83808000000203F20002E
:1005EE00000010080808C8380800203826212020EE
:1005FE001800000000FE020202000000007F4040D2
:10060E004000000C30C00000000000000001063861
:10061E00C00000020202FE000000004040407F00C9
:10062E0000000000040202020400000000000000AE
:10063E0000000000000000000000808080808080AC
:10064E008080000202040000000000000000000094
:10065E0000000000808080800000001924222222E9
:10066E003F2008F8008080000000003F112020117C
:10067E000E000000008080800000000E112020205F
:10068E001100000000808088F800000E112020105C
:10069E003F200000808080800000001F2222222246
:1006AE001300008080F0888888180020203F2020CA
:1006BE0000000000808080808000006B94949493F2
:1006CE00600008F8008080800000203F210000209C
:1006DE003F2000809898000000000020203F20203E
:1006EE000000000000809898000000C08080807F8D
:1006FE00000008F8000080808000203F24022D308A
:10070E002000000808F8000000000020203F2020F4
:10071E0000008080808080808000203F20003F206D
:10072E00003F8080008080800000203F210000205C
:10073E003F200000808080800000001F20202020AD
:10074E001F00808000808000000080FFA12020110B
:10075E000E000000008080808000000E112020A07E
:10076E00FF80808080008080800020203F2120003C
:10077E000100000080808080800000332424242427
:10078E001900008080E0808000000000001F202003
:10079E0000008080000000808000001F20202010BC
:1007AE003F20808080000080808000010E3008068F
:1007BE00010080800080008080800F300C030C30A0
:1007CE000F0000808000808080000020312E0E31CE
:1007DE002000808080000080808080818E701806CE
:1007EE00010000808080808080000021302C22213A
:1007FE00300000000000807C020200000000003F7C
:10080E00404000000000FF00000000000000FF005C
:10081E0000000002027C800000000040403F00000B
:10082E0000000006010102020404000000000000A6
:10083E0000000000F010101010FF10101010F0004B
:10084E00000000000F04040404FF040404040F005D
:10085E0000004040405F555555755555555F404019
:10086E0040000040200F094989790909090F2040ED
:10087E00000000FE02424ACA4A4ACA4A4A4202FEE0
:10088E00000000FF40504C4340404F50505C40FF32
:10089E0000000000F888888888FF88888888F8001B
:1008AE00000000001F080808087F888888889F803D
:1008BE00F00080828282828282E2A2928A86828086
:1008CE008000000000000040807F0000000000005B
:1008DE0000002424A4FEA3220022CC0000FF00006E
:1008EE000000080601FF00010404040404FF0202D4
:1008FE000200101010FF109008888888FF888888E2
:10090E0008000444827F01808040432C10284681D9
:10091E0080000000000000000000E0F030303030B9
:10092E000000F0F0C0C0F0F00000F0F0B0B0706069
:10093E000000E0F03030F0E00000F0F030F0F03089
:10094E00F0E000E0E0909090909000000000000039
:10095E000000000000000000000000000000000089
:10096E000000808000000000000000000000000079
:10097E000000000000000000000000000000000069
:10098E000000000000000000000000000000000059
:10099E0000000000000000000000F3F73636F6E617
:1009AE0000F0F707C1C13737F0C007C7E03037375F
:1009BE00E0C0030706F6F7B3B0B0F7E700F7F700AD
:1009CE0007F7F003E3F43434F4E400000000000011
:1009DE0000000000000000000010100C041414129F
:1009EE001111111011121212141C1000000000002F
:1009FE0000000000000000000000000000000000E9
:100A0E0000000000000000000000000000000000D8
:100A1E00000000000000000000000F0F0C0C0F077C
:100A2E00000F0F000F0F00000F0F0003070C0C0C30
:100A3E0007030000000F0F0101010E0E00070F0C3F
:100A4E000C0707000F0F00000F0F00000000000042
:100A5E000000000000000000000000000000000088
:100A6E000000000000000000000000000000000078
:100A7E000000000000000080C060A0A0A090888848
:100A8E008C889090B0A0C080000000000000000094
:100A9E000000000000000000000000000000004008
:100AAE0040004040404040404040400000F0FCFCD0
:100ABE009C9CFCFCFCFCFCFCFCFCFCFCF0F0000038
:100ACE000000000000000000000000000000000018
:100ADE000000000000000000000000000000000008
:100AEE000000008000000000000000000000000078
:100AFE0000000000000000000000000000000000E8
:100B0E000000800000000000000000000000000057
:100B1E00000000000000000000000080000008003F
:100B2E0000080808080808080800008080FFFFFF7A
:100B3E00FFFFFF7F7F4F4F4F4F4F4F0F0F0F0000A5
:100B4E000000000000000000000000000000000097
:100B5E000000000000000000000000000080800087
:100B6E000000FFFFFFFF000080800000000000FE7D
:100B7E00FEFE0000F0E00000000000F0F8F00000C3
:100B8E00FFFFFFFF000080808000000000000000DB
:100B9E000000000000000000000000FFF8F8E0E098
:100BAE00808080C0E0F8F8F8FEFEFEFFFFFFFFFF3A
:100BBE00FFFFFF180838380000000000000000009A
:100BCE000000000000000000000000000000000017
:100BDE0000000000000000000000000000FFFF0108
:100BEE000000FFFFFFFF0000FFFF00FCFE0400FF00
:100BFE00FFFF0C0C8F8300F0F000809F3F7F707022
:100C0E00FFFFFFFF000000FFFF00000000000000DC
:100C1E00000000000000000000000003070F1F1F6F
:100C2E007F7FFFFFFFFFFFFFFFFFFFFFFFFF7F7FC6
:100C3E001F17070000000000000000000000000069
:100C4E000000000000000000000000000000000096
:100C5E00000000000000000000000000000103077B
:100C6E000707FFFFFFFF030301000003070E0CFF42
:100C7E00FFFF00001F3F20FFFF201F0F000000009E
:100C8E00FFFFFFFF03030301000000000000000050
:100C9E00000082828202022222222202020282822A
:100CAE0000000001FF9F9F070701010707FF8080DB
:100CBE00000002020202C20202020202828282824A
:100CCE000202323232220202020200000000000052
:100CDE000000000000000000000242420202020278
:100CEE0002000F0F0F0F0001010111110101000F82
:100CFE000F0F00013111000F0F000D0D011111101A
:100D0E001F1F1F1F10000D0101010101010D0D011B
:100D1E000000C8C8C828282808C8C8080808080835
:100D2E0008080808080808480808C8C8C808383855
:100D3E000808080808484808080808080828084845
:100D4E00484808080828280808080808080808C895
:100D5E000808080808080848080808080808383865
:100D6E000808080808080808080808480828280875
:100D7E004848080808080808080808080808280845
:100D8E0008080838380868080808080808280808F5
:100D9E0008080808084808484808080808080848C5
:100DAE004808080808080808680808080808080815
:100DBE0008080828080808080808C8C80809080804
:100DCE000808083838080828080908080808080814
:100DDE0008282808080809080808080808080868E4
:100DEE006808C9C8C8080808C808080808282908D3
:100DFE0008080808080808080808484908080808E4
:100E0E000808080808080868680808282808080854
:100E1E000808080868680808C8C808080808080804
:100E2E000808282808280808080808282828080874
:100E3E004808383808080808C80808080808C8C844
:100E4E00C828282808C8C808080808080808080874
:100E5E00080848480808C8C8C808383808080808E4
:100E6E000848480808080808282808484848080874
:100E7E000828280808080808080808C80808080CE0
:100E8E0006024242060C08080808383808181810DE
:100E9E001010101018180848082828084848080884
:100EAE000808080808080808082828080808083844
:100EBE003868680808080808082808080808080894
:100ECE000848084848080808080808484808080854
:100EDE000808086868080808080808080808282884
:100EEE000808080808C8C8C80808080808082838E4
:100EFE0038080828080808080808080828282808B4
:100F0E000808080808080808080808686808C8C813
:100F1E00C8080808C8080808082828080808080C7F
:100F2E0004060202060C4C480808080C04060202CD
:100F3E00060C0C686808282828080808080808689D
:100F4E0068680808C8C80808080808080808282893
:100F5E0028280808080808282828080848283838A3
:100F6E0008080808C80808E08000000080C0E0FEFD
:100F7E00FFFDBFAF2F2F0E03070F1EFFBF1F1F3F1B
:100F8E002F070001000000E08000000080C0E0FE9E
:100F9E00FFFDBFAF2F2F0E03070F1E3F7F5F3FFFDB
:100FAE008F07000100000080C0E070B0B0B09888DC
:100FBE008E8383838181938E8C888898B0F0C0F065
:100FCE00E000FFFE80FC00007CC0FEFF0080FC0302
:100FDE000706FFFF011090909000FFFF030301F042
:100FEE00F000FFFF00F0F0030786FFFF060301F09D
:100FFE00E000FFFE80FC00FCFE00FFFF00F8F000AA
:10100E00FE80FEFFFE78FC131706FFFF0110101383
:10101E003704FFFF080F17101001FFFF031311F025
:10102E00E000FFFE00F000C000FFFE603C8000000C
:10103E007CC0FEFF00F0F8434786FFFF26A3A027E3
:10104E0004FFFF0008FF882F0000FFFF062321008A
:10105E00000000000000000000000000000000E0A2
:10106E008000000080C0C0FEFFFDBFAF2F2F0E031B
:10107E00070F1FFFBF1F3FFF8F070001000000007B
:10108E00000000000000000080808080808000F062
:10109E00C0808080C0E0E0FFFFFE5FD7171707011A
:1010AE0003070F7F5F0F1F7F470300000000000044
:1010BE000000000000000080C040C0C0C0C080F82A
:1010CE00E0C0C0C0E0F0F0FFFFFF2F6B0B0B030082
:1010DE000103073F2F070F3F230100000000000010
:1010EE0000000000000000C0E0A0E0E0E0E0C07CF6
:1010FE00F0E0E0E0F0F8F8FFFFFF1735050501001E
:10110E000001031F1703071F11000000000000005D
:10111E0000000000000000E0F0D0F0F0F0F0E03E43
:10112E0078F0F0F0F8FCFCFFFF7F0B1A02020000D3
:10113E000000010F0B01030F08000000000000006B
:10114E0000000000000000F0F8E8F8787878701FD2
:10115E003C78F8F8FCFEFEFF7F3F050D0101000014
:10116E0000000007050001070400000000000080D9
:10117E0000000000000000F8FCF4FCBCBCBC380F02
:10118E001E3C7CFCFE7FFFFF3F1F0206000000009E
:10119E00000000030200000302000000000000C077
:1011AE0000000000008080FCFEFA7E5E5E5E1C0782
:1011BE000F1E3EFE7F3F7FFF1F0F0103000000004A
:1011CE00000000010100000101000000000000FC11
:1011DE00FFFFFFFFFF3F3F3F3F0F1F3FFFFFFF3F61
:1011EE003FFFFFFFFFFFFCFFFFFFFFFF00007E7EC4
:1011FE007E787C7E7F7F7F7E0000FFFFFFFFFF3FBC
:10120E00FFFFFFFFFFFCFCFCFCFCFCFCFCFCFCFC01
:10121E00FCFFFFFFFFFF3F01010303040405060768
:1020D70002080000C100020A0080010C00020D0086
:0E20E70080020F008001110801120001130099
:10211400EF4E60157D087C07ED1DAA0470011C4A72
:0921240070F6EF1F70EA1E80E75F
:01212D00228F
:0921A600D2B2D2B3C2B3C2B2221C
:0721AF00D2B2C2B3D2B32289
:0B216C00122054122177AF04122054FF
:05217700D2B2C2B22249
:07204D00AC071221A67F7809
:10205400C2B2E4FEAD07530580BD8004D2B3800252
:0E206400C2B3EF25E0FFD2B2C2B20EBE08E654
:01207200224B
:0E218A0012204D122177E4FF12216C0221AFCA
:0E21980012204D1221777F4012216C0221AFE0
:101FF500E924B0FFE433FEE4FDFC122010E4FDFC0F
:0B200500FFFE1220107F10E4FDFCFE27
:10201000AB07AA06ED4C6003022198AF0312218A98
:01202000229D
:022073008F2FAD
:10207500E4F9121FF5E4F530AF2F7E007D017C00F9
:102085001220100530E530C3948040EC09B908E210
:012095002228
:1020F600D3EF9400EE940040147D657C18ED1D70BE
:0D210600011CED4C70F7EF1F70E61E80E32A
:0121130022A9
:10214500EF1FAA0670011E4A600BE4FDEDC3947BE8
:0521550050EE0D80F7C3
:01215A002262
:10202100A907ED24B0FFE433FEE4FDFC122010E922
:1020310054F0C4540F7E004410FFE4FDFC12201044
:0C204100E9540FFF7E00E4FDFC022010BB
:10212E007F8D12200CE4FDFC7F14FE122010E4FDC6
:07213E00FC7FAFFE02201040
:10215B00E4FDFC7F8D122006E4FDFC7FAEFE022029
:01216B001063
:1020B700E4F9121FF5E4F52F7D017C00E4FFFE1221
:0F20C7002010052FE52FC3948040ED09B908E3E1
:0120D60022E7
:10209600E4F9121FF5E4F51D7D017C007F017E0049
:1020A600122010051DE51DC3948040EC09B908E215
:0120B6002207
:041B82008F3C8D3DCA
:101B8600E4F540F9EB24E0F540E53CD3947F4007CB
:101B9600E4F53C053D053DE53F64107069AD3DAF9C
:101BA6003C122021E4F975F010E540A429F582E401
:101BB60035F0F583E5822450F582E5833402F5831A
:101BC600E493FF7E007D017C0012201009B908D63F
:101BD600E53D04FDAF3C122021E4F975F010E54027
:101BE600A429F582E435F0F583E5822458F582E5EB
:101BF600833402F583E493FF7E007D017C0012208E
:101C06001009B908D622AD3DAF3C122021E4F97582
:101C1600F006E540A42428F582E5F03400F583E5D6
:101C26008229F582E43583F583E493FF7E007D0106
:091C36007C0012201009B906D649
:011C3F002282
:040003008F38A90584
:100007007F017E00AD0119ED6009AD387C00121546
:030017007180F104
:01001A0022C3
:081CCC008F2F8D308A318B321D
:101CD400E4F537F535E535C395335065C3E53395FC
:101CE4003514FD7F0A120003AC31AD32CFCDCFCE17
:101CF400CCCE1215837C007D0A1215838D36E53710
:101D04007023E53314FFE535C39F5019E53670128F
:101D1400E534C3138535F0A4252FFF85343F7B209C
:101D24008016753701E534C3138535F0A4252FFFDC
:101D3400E5362430FB85343FAD30121B82053580F7
:011D4400940A
:011D4500227B
:0A1FB5008F358D368B378A38893955
:101FBF00E4F53BAB37AA38A939853B82758300120C
:101FCF001544FB6020853A3FAD36AF35121B827446
:101FDF00082535F535D394784007E4F535053605F2
:051FEF0036053B80CE29
:011FF40022CA
:061D46008F448D458B4621
:101D4C00E4F547122021E4F9E546C43354E024407D
:101D5C00F582E43408F583E58229F582E43583F5D0
:101D6C0083E493FF7E007D017C001220100547095F
:101D7C00B910D5E54504FDAF44122021E4F9E54640
:101D8C00C43354E02450F582E43408F583E5822909
:101D9C00F582E43583F583E493FF7E007D017C00BE
:091DAC00122010054709B910D5F9
:011DB500220B
:041ED2008F2F8B3192
:101ED600E4F536F5378D39E539C39532503BAD39E2
:101EE600AF2F122021852F38E538C395315026AB08
:101EF60033AA34A9350537E537AE367002053614F0
:101F0600F5828E83121544FF7E007D017C0012202F
:091F160010053880D3053980BEA6
:011F1F00229F
:0E1F6D00C39FFDE49EFC7B107A007F107E0077
:081F7B008E408F418A428B4326
:101F8300122021900000C3E5829543E583954250DA
:101F930020E5412582FFE5403583FED3EF9480EEB3
:101FA3009400500D7D017C00E4FFFE122010A380FD
:011FB300D558
:011FB400220A
:101E7E00752F05753002753155E4F532F5337D0752
:101E8E00FF122021E4F5347E00E5092534FFEE35FE
:101E9E0008FEAC30AD3112158374202DF582740D11
:101EAE003CF583E493FF7E007D017C00122010053B
:101EBE0034E534C3948040CFE52F2509F509E43588
:031ECE0008F5080C
:011ED10022EE
:101DB600E4F52FF530B200F531E5312406FD7F104C
:101DC600122021E4F9E53175F010A4FFAEF0E97CAC
:101DD600002FF530EC3EF52FA200E4FE337805C364
:101DE60033CE33CED8F92475F582740F3EF583E5EC
:101DF600822530F582E43583F583E493FF7E007D0A
:101E0600017C0012201009B910BB0531E531C394DD
:031E16000240A6E1
:011E190022A6
:1018B400752F03E4F530F531F534F535F536753724
:1018C40018E50B2537FFE50A3536FEAD2FED3395C8
:1018D400E0FCC3E49DFDE49CFCD3EF9DEC6480F844
:1018E400EE6480985012750A00750B80121F207CDC
:1018F400007D031215D88D0CC3E50A6480948050D2
:1019040013C3E4950BF535E4950AF534E50C04FDB1
:10191400E4FF800BE4F534F535AF0BE50C04FD1260
:101924002021853432853533AF2FEF3395E0FEE542
:10193400372FFFE5363EFEC3E5339FEE6480F8E5BE
:10194400326480985050E50B2533FFE50A3532FEAA
:10195400D3EF947FEE64809480503BC3E533953796
:10196400E5366480F8E532648098501274B5253306
:10197400F582740F3532F583E493F5388003E4F58A
:1019840038AF387E007D017C001220100533E5332A
:10199400709605328092AF2FEF3395E0FEC3E50BCE
:0819A4009FF50BE50A9EF50A10
:0119AC002218
:1019AD00751405E4F515F516F517751810F519F5F7
:1019BD001AE50E2518FFE50D3517FED3EF9400EE51
:1019CD00648094805017E514FB3395E0FA7D067C16
:1019DD0000E4FFFE121F7B750D00750E80E4F51BF4
:1019ED00C3E50D648094805014C3E4950EF516E4A0
:1019FD00950DF515E51B2406FDE4FF800CE4F515AA
:101A0D00F516AF0EE51B2406FD122021A916E9FFE0
:101A1D007E00C39518E5176480F8748098503FE5F3
:101A2D000E2FFFEE350DFED3EF947FEE6480948084
:101A3D00502CAF1B7E00AC17AD18121571E97C0050
:101A4D002FFFEC3EFE74CD2FF582740F3EF583E42F
:101A5D0093F51CFF7E007D011220100980B0051B3F
:101A6D00E51BC3940250030219EDE50E2518FFE5A1
:101A7D000D3517FEE514FB3395E0FA7D067C00125B
:101A8D001F7BAF14EF3395E0FEC3E50E9FF50EE51A
:041A9D000D9EF50D98
:011AA1002222
:021775008F2FB4
:10177700753005E4F531F532F533F534F535F536E1
:10178700F537F538BD011BF50F751080E530FB33D4
:1017970095E0FA7D067C00E4FFFE121F7B7E007F4A
:1017A7008022E52F7007F533753408801EE52FB4C6
:1017B70001087533007534108011E52F6402600548
:1017C700E52FB40306753300753418E4F539C3E51E
:1017D7000F648094805014C3E49510F532E4950F9C
:1017E700F531E5392406FDE4FF800CE4F531F532E7
:1017F700AF10E5392406FD122021A932E9FF7E004A
:10180700C39534E5336480F87480985061E5102FF0
:10181700FFEE350FFED3EF947FEE64809480504E39
:10182700AF397E00AC33AD34121571E97C002FF56A
:1018370038EC3EF537E52F7007E538900FED801D42
:10184700E52FB40107E538900FCD8011E52FB402DD
:1018570007E538900FFD8005E53890102D93F53A90
:10186700AF3A7E007D017C0012201009808E053979
:10187700E539C3940250030217D5E5102534FFE577
:101887000F3533FEE530FB3395E0FA7D067C001219
:101897001F7BAF30EF3395E0FEC3E5109FF510E5F2
:0C18A7000F9EF50FE5102FFFE50F3EFE31
:0118B3002212
:02161A008F2F10
:10161C0078307C007D007BFF7A1279257E007F0973
:10162C001214FCE4F539F53AF53BF53CF53EE52FA3
:10163C00B4010BE4F512F513751108FEFF22E51346
:10164C00701874302511F8E62512F5121511C3E542
:10165C0011648094805003E4F511E513B4011B74FC
:10166C00302511F8E6FFC3E5129FF5120511D3E5FD
:10167C0011648094884003751108C3E5126480944A
:10168C009F400675130175121FD3E5126480948078
:10169C005005E4F513F512D3E512648094875005D8
:1016AC00E4F53E802DD3E5126480948F5005753E91
:1016BC0001801FD3E512648094975005753E02801B
:1016CC0011D3E5126480949F5005753E0380037519
:1016DC003E04E4F53DC37405953E253DFD7F101297
:1016EC002021E4F9E53D75F010A4FFAEF0E97C0093
:1016FC002FF53CEC3EF53BE51275F008121522AFC8
:10170C00F0EF3395E0FE90105D75F030EF12160E91
:10171C00EE75F030A42583F583E582253CF582E552
:10172C0083353BF583E493F53FFF7E007D017C0020
:10173C0012201009B910AD053DE53DC39403409549
:10174C00E513700CAF3EEF3395E0FE7408121F6D7D
:10175C00E513B4010CAF3EEF3395E0FE7404121F99
:08176C006DAF12EF3395E0FEB2
:011774002252
:101E1A00E4F52FF530F531F532753302AD337F3401
:101E2A00122021E4F90532E532AE3170020531148F
:101E3A0024DDF58274113EF583E493F534FF7E00C8
:101E4A007D017C0012201009B918DA0533E533C385
:101E5A00940540C87BFF7A00791E753A107D037F8E
:101E6A000A121FB57BFF7A007923753A107D037F2A
:041E7A0056021FB538
:101AA200E4FDFC7FAEFE121FFFE4FDFC7F40FE1250
:101AB2002010E4FDFC7FB0FE122010E4FDFC7F81CB
:101AC200FE122010E4FDFC7FFFFE122010E4FDFC5C
:101AD2007FA1FE122010E4FDFC7FA6FE122010E47E
:101AE200FDFC7FA8FE122010E4FDFC7F3FFE1220C9
:101AF20010E4FDFC7FC8FE122010E4FDFC7FD3FE43
:101B0200122010E4FDFCFFFE122010E4FDFC7FD544
:101B1200FE122010E4FDFC7F80FE122010E4FDFC8A
:101B22007FD8FE122010E4FDFC7F05FE122010E497
:101B3200FDFC7FD9FE122010E4FDFC7FF1FE122095
:101B420010E4FDFC7FDAFE122010E4FDFC7F12FEA1
:101B5200122010E4FDFC7FDBFE122010E4FDFC7F6E
:101B620030FE122010E4FDFC7F8DFE122010E4FDF9
:101B7200FC7F14FE122010E4FDFC7FAFFE02201059
:101C4C0002122EE493A3F8E493A34003F68001F26E
:101C5C0008DFF48029E493A3F85407240CC8C33399
:101C6C00C4540F4420C8834004F456800146F6DF68
:101C7C00E4800B01020408102040809020D7E47E01
:101C8C00019360BCA3FF543F30E509541FFEE4935D
:101C9C00A360010ECF54C025E060A840B8E493A324
:101CAC00FAE493A3F8E493A3C8C582C8CAC583CA4F
:101CBC00F0A3C8C582C8CAC583CADFE9DEE780BE07
:0120F50000EA
:10142C00E709F608DFFA8046E709F208DFFA803EA2
:10143C0088828C83E709F0A3DFFA8032E309F6088F
:10144C00DFFA8078E309F208DFFA807088828C83F7
:10145C00E309F0A3DFFA806489828A83E0A3F608AB
:10146C00DFFA805889828A83E0A3F208DFFA804C85
:10147C0080D280FA80C680D4806980F2803380105C
:10148C0080A680EA809A80A880DA80E280CA8033C5
:10149C0089828A83ECFAE493A3C8C582C8CCC5833D
:1014AC00CCF0A3C8C582C8CCC583CCDFE9DEE7800D
:1014BC000D89828A83E493A3F608DFF9ECFAA9F08C
:1014CC00EDFB2289828A83ECFAE0A3C8C582C8CCE2
:1014DC00C583CCF0A3C8C582C8CCC583CCDFEADEFB
:1014EC00E880DB89828A83E493A3F208DFF980CC5D
:1014FC0088F0EF60010E4E60C388F0ED2402B40456
:10150C000050B9F582EB2402B4040050AF232345FC
:06151C00822390147C7391
:10152200C2D530F707B2D563F0FF05F030E70CB251
:10153200D5F4048463F0FF05F080018430D502F411
:02154200042281
:10154400BB010CE58229F582E5833AF583E022505C
:1015540006E92582F8E622BBFE06E92582F8E222A6
:0D156400E58229F582E5833AF583E49322C0
:10157100EF8DF0A4A8F0CF8CF0A428CE8DF0A42E8E
:02158100FE2248
:10158300BC000BBE0029EF8DF084FFADF022E4CC4C
:10159300F875F008EF2FFFEE33FEEC33FCEE9DEC15
:1015A300984005FCEE9DFE0FD5F0E9E4CEFD22ED5B
:1015B300F8F5F0EE8420D21CFEADF075F008EF2FA5
:1015C300FFED33FD4007985006D5F0F222C398FD96
:0515D3000FD5F0EA2233
:1015D800C2D5EC30E709B2D5E4C39DFDE49CFCEE2E
:1015E80030E715B2D5E4C39FFFE49EFE121583C30E
:1015F800E49DFDE49CFC800312158330D507C3E409
:061608009FFFE49EFE229C
:0C160E00A42582F582E5F03583F58322E7
:101F2000AC48AD49AE4AAF4B7810EC4D4E4F700403
:101F30007CA57DA5C3EC13FCED13FDEE13FEEF13A2
:101F4000FF5010EC64CCFCED644CFDEE644EFEEFF3
:101F500064CEFFD8DF8C488D498E4A8F4BEE547F7C
:0D1F6000FE228E488F4974A5F54AF54B22EC
:00000001FF
